:100000000C944A000C9472000C9472000C947200D0
:100010000C9472000C9472000C9472000C94720098
:100020000C9472000C9472000C9472000C94720088
:100030000C9472000C9472000C9472000C94720078
:100040000C944E050C9472000C94880E0C94620E65
:100050000C9472000C9472000C9472000C94720058
:100060000C9472000C94720021402324255E262AF1
:1000700028295F2B7B7D7C7E3A227E3C3E3F2D3DB6
:100080005B5D5C203B27602C2E2F2F2A2D2B13002D
:100090005C141D1011241FBECFEFD8E0DEBFCDBF12
:1000A00011E0A0E0B1E0E8E5F0E302C005900D92B8
:1000B000A63AB107D9F723E0A6EAB1E001C01D9244
:1000C000A133B207E1F710E0C9E4D0E004C0219702
:1000D000FE010E944E15C834D107C9F70E942910AD
:1000E0000C941F180C940000CF93DF93FC01EA01DD
:1000F00080819181892B19F580E027C02881398181
:10010000232BD1F3DB012D913C91D9019C91A3814B
:10011000B0E0A81BB10920813181A20FB31F9C93CD
:100120008281815082838881998101979983888314
:10013000DB018D919C91119701968D939C93828107
:100140008111DCCF8381828381E0DF91CF9108959B
:100150003F924F925F926F927F928F929F92AF9257
:10016000BF92CF92DF92EF92FF920F931F93CF93A4
:10017000DF93D80112962C91213009F465C02B0130
:10018000EC016A81F8014081641731F0E881F9815E
:100190000480F581E02D09954801F2E08F0E911C55
:1001A0005E0184E0A80EB11C3E01AAE06A0E711C3B
:1001B00075016401D6014C91F7019081D401F501DC
:1001C000312C80E02191421303C0413009F081E0DD
:1001D0002D91291304C0913011F033243394E61586
:1001E000F70581F7811113C0E881F9810280F3815D
:1001F000E02DB201CE010995E881F9810680F781F1
:10020000E02DD6014C91D8016C91CE0109953110A9
:100210000AC0E881F9810084F185E02DD7014C9175
:100220006A81CE010995BFEFCB1ADB0AEFEFEE1A18
:10023000FE0AE614F70409F0BDCFF8012296819179
:100240008993C615D705D9F7DF91CF911F910F91EB
:10025000FF90EF90DF90CF90BF90AF909F908F90E6
:100260007F906F905F904F903F9008950895DF9238
:10027000EF92FF920F931F93CF93DF93EC01E62E43
:10028000F12C85E0689FB0011124FE01E60FF71FF5
:100290008085182F177086FF21C001E085E0D82ED9
:1002A0008FEF800F8F3008F001E0FE01D09EE00D4F
:1002B000F11D11248085869586958695877081131A
:1002C00005C0602FCE010E943701EACF0F5F0031D9
:1002D00061F78D81811302C011501D8385E08E9DD1
:1002E000F0018F9DF00D1124EC0FFD1F108681E0B1
:1002F000818712862296D783C683DF91CF911F9183
:100300000F91FF90EF90DF900895FC016134C1F4EC
:100310003F969C01265A3F4F61E0AC014E5F5F4F14
:10032000DF0112971C9211966C93108213974D93D4
:100330005C933596E217F30799F7FC01158208954F
:100340003D9621E03081361303C0622F0C943701B3
:100350002F5F35962031B1F70895CF93DF93FC01DD
:10036000862F807809F051C0283008F04FC0442310
:1003700021F09581973009F449C0EF012D96A0E056
:10038000B0E011969881911103C0662331F021C02D
:100390002596AF30B105A9F739C085E08A9FE00105
:1003A0008B9FD00D1124CE0FDF1F442331F081E449
:1003B000888785818F5F858302C081E0888725E0FB
:1003C0002A9FC0012B9F900D1124E80FF91F8085F3
:1003D0001DC06770660F660F660F442341F06064AE
:1003E00085818F5F85838770687F682B03C0277046
:1003F000687B622B25E02A9FC0012B9F900D112462
:10040000E80FF91F6087862F01C080E0DF91CF9150
:100410000895611102C006960895FC013D9621E001
:100420003081361307C035E0239F800D911D1124C4
:10043000069608952F5F3596203191F780E090E081
:1004400008952F923F924F925F926F927F928F9278
:100450009F92AF92BF92CF92DF92EF92FF920F9353
:100460001F93CF93DF9300D000D0CDB7DEB76C01E0
:100470007C836B835A8349834C0180E1880E911CF5
:100480005601A7E0AA0EB11C11E084E0482E97E0C7
:10049000392E3601B2E16B0E711C23E0222E32E0C0
:1004A000532E8B819C81892B09F412C1F60180A106
:1004B000823061F128F4882349F0813079F0F1CF5E
:1004C000833041F1843009F44BC0EBCF54828581F5
:1004D0009681908787835286518610A3AE014D5F27
:1004E0005F4FBE016F5F7F4FC5010E94740088237C
:1004F00009F4EEC0D6011596ED91FC911697808116
:1005000091968C939197818192968C93F601768245
:10051000658220A2D60192968C91843081F018F4E5
:10052000823079F014C0853081F0813281F4D601B7
:1005300091968C919197825014968C9308C0F601F5
:1005400013A2D60114963C9202C0F6018483F601F0
:10055000858196819087878384818287818740A265
:10056000D60192968C918430B1F0853009F442C066
:10057000823009F06EC0AE014D5F5F4FBE016F5F0C
:100580007F4FC5010E947400882309F4A1C0F601C1
:10059000858984A395C0AE014D5F5F4FBE016F5F3B
:1005A0007F4FC5010E947400882309F491C0D601D1
:1005B00055968C915597833009F082C056968C9150
:1005C0005697813009F07CC098969C9198975796E1
:1005D0008C91992321F0882309F472C003C08130E3
:1005E00009F06EC0F60113A3928996A3938997A38D
:1005F00085A366C0AE014D5F5F4FBE016F5F7F4F49
:10060000C5010E947400882309F462C0D601939644
:100610008C919397882309F453C012968D919C91E5
:100620001397009709F44CC0DC01ED91FC91019007
:10063000F081E02D7401D60195960C9195979796CF
:100640002C91979796964C91969794966C910995C4
:1006500037C0F60181A19585992319F0913031F0C9
:100660002AC090E002979787868715872B813C8167
:1006700089819A81782F692FD6011E964D915C91C0
:100680001F974115510539F43C832B839A83898345
:100690001D961C9210C001962115310541F0415064
:1006A0005109F6015787468721503109E3CF1C8253
:1006B0001B8279836A83F60186859785892B41F4AD
:1006C000D60116969C928E92159790961C92E9CE22
:1006D0000F900F900F900F90DF91CF911F910F917E
:1006E000FF90EF90DF90CF90BF90AF909F908F9052
:1006F0007F906F905F904F903F902F900895089556
:10070000EF92FF92CF93DF93DC01E70152968C9139
:100710005297823049F11F966C931F9750964C93D5
:1007200050979B8193709330F9F49A8197FF1CC086
:100730009E8158962C915897291718F458969C9397
:100740005897E82FF0E09F01220F331FE20FF31FAD
:10075000EA0FFB1F9A819F7097839C81908794E09A
:1007600091878F5F52968C93DF91CF91FF90EF909E
:100770000895EF92FF920F9302970E9480030F91CA
:10078000FF90EF900895FC0187890895860F911DD1
:10079000860F911DFC0185859685089581E0613065
:1007A00009F080E0089581E0633009F080E0089569
:1007B000FC0186810895CF93DF93EC018C819D81AC
:1007C000DC01ED91FC910480F581E02D6E810995AD
:1007D0001F86188A81E08A8B1E821B8A1C8A1D8ACA
:1007E0001E8A1F8A80E0DF91CF9108952A9808958C
:1007F000860F911D860F911DFC015687458781E06C
:1008000008958AE890E008958EE790E0089582E7E1
:1008100090E0089588E690E008950895089581E0B5
:10082000089580E0089580E00895089580E0089597
:1008300080E0089580E0089580E0089580E00895C4
:100840003FB7F8948091B1019091B201A091B301AA
:10085000B091B40126B5A89B05C02F3F19F00196B1
:10086000A11DB11D3FBFBA2FA92F982F8827820F36
:10087000911DA11DB11DBC01CD0142E0660F771F86
:10088000881F991F4A95D1F70895EF92FF920F9311
:100890001F93CF93DF93CDB7DEB728970FB6F894A9
:1008A000DEBF0FBECDBFDC01142F8CEF840F8A3169
:1008B00048F41A968C9181FF02C00DE301C00DE54A
:1008C000010F58C082EE840F8A3028F4473209F4B1
:1008D0004EC003E1F5CF87EA840F893040F41A96C1
:1008E0008C91082F017080FF45C008EDE9CF83EDA2
:1008F000840F8C3060F4ED91FC9111970684F7859C
:10090000E02DCD010995E12FF0E0BD9710C08CEAF4
:10091000840F853080F4ED91FC9111970088F18966
:10092000E02DCD010995E12FF0E0E455F109E80F44
:10093000F91F04911FC04C32E1F020F4483231F429
:1009400003E118C0423621F0433649F000E012C0FE
:100950001A968C91082F017080FF0CC008C01A965F
:100960008C91082F017080FF05C00EE203C000E3E8
:1009700001C000E28091A8019091A901A091AA0173
:10098000B091AB01892B8A2B8B2B69F4002309F4DE
:100990005CC00E9420046093A8017093A901809319
:1009A000AA019093AB01033109F04FC08CEBE82E04
:1009B00081E0F82EF70111917F011A8219821C82C1
:1009C0001B821E821D8261E273E0CE0101960E94AD
:1009D0004B0E1F8318860D811E810F5F1F4FB801BC
:1009E000CE0101960E94F10D882371F029813A8190
:1009F0008D819E81BE01695F7F4F820F931F0E9490
:100A000059171E830D8304C0CE0101960E94180E53
:100A1000BE016F5F7F4F81E293E00E944B0E8981A0
:100A20009A810E94E915F5ECEF16F1E0FF0611F648
:100A30001092A7011092A6011092A8011092A9018C
:100A40001092AA011092AB0110C02091A601309122
:100A5000A701D901AB54BE4FEC91E00FEC932F5F8F
:100A60003F4F3093A7012093A60128960FB6F89424
:100A7000DEBF0FBECDBFDF91CF911F910F91FF90D1
:100A8000EF9008952FB7F8946091AD017091AE0189
:100A90008091AF019091B0012FBF08951F920F92E6
:100AA0000FB60F9211242F933F938F939F93AF9381
:100AB000BF938091AD019091AE01A091AF01B09133
:100AC000B0013091AC0123E0230F2D3720F40196C3
:100AD000A11DB11D05C026E8230F0296A11DB11D61
:100AE0002093AC018093AD019093AE01A093AF0130
:100AF000B093B0018091B1019091B201A091B30186
:100B0000B091B4010196A11DB11D8093B1019093E4
:100B1000B201A093B301B093B401BF91AF919F9183
:100B20008F913F912F910F900FBE0F901F901895AE
:100B30002A9A08950F931F93CF93DF9300D0CDB7D8
:100B4000DEB78A016A8389830E94F6038981826005
:100B50008EBDF8016A81862F882339F00DB407FE17
:100B6000FDCF91919EBD8150F7CF060F111D0DB4A1
:100B700007FEFDCF0E949805C8010F900F90DF91EE
:100B8000CF911F910F910895CF93DF9300D0CDB7F0
:100B9000DEB76A8389830E94F603898182608EBDF5
:100BA0006A810DB407FEFDCF6EBD0DB407FEFDCF0B
:100BB0000F900F90DF91CF910C9498059F92AF9278
:100BC000BF92CF92DF92EF92FF920F931F93CF933A
:100BD000DF937C01C42F122F992493946C01C60ECD
:100BE000D11CC60ED11C86E5C80ED11CA42EB12C7A
:100BF000ABE2AA0EB11CAA0CBB1CAE0CBF1CF601CA
:100C000080819181DC01ED91FC910280F381E02DE6
:100C1000202F412F6C2F0995803EC9F4C1110BC0C4
:100C200061E088EE0E94C40566E670E080E090E036
:100C30000E94BA0E16C0F50180819181DC01ED9110
:100C4000FC910284F385E02D612F09950AC08D3057
:100C500031F49FEF990D933008F040C016C0811118
:100C60003DC0F60180819181DC01ED91FC91019004
:100C7000F081E02D202F412F6C2F0995D82F8D303A
:100C800061F48FEF890D833050F464E670E080E00A
:100C900090E00E94BA0E9394B2CF8823F1F0C11174
:100CA0000BC061E088EE0E94C40566E670E080E05B
:100CB00090E00E94BA0E11C0EC2FF0E0BB96EE0F50
:100CC000FF1FEE0DFF1D80819181DC01ED91FC91F4
:100CD0000284F385E02D612F09958D2FDF91CF914F
:100CE0001F910F91FF90EF90DF90CF90BF90AF904A
:100CF0009F900895CF93DF931F92CDB7DEB789837E
:100D00000E94F60389818EBD0DB407FEFDCF1EBC87
:100D10000DB407FEFDCF0E9498058EB50F90DF91B0
:100D2000CF9108958F929F92AF92BF92CF92DF9210
:100D3000EF92FF920F931F93CF93DF93862E942E03
:100D400059010E9442056B017C0120E1C20E27E29D
:100D5000D21EE11CF11C00E010E0D0E0C0E09828B9
:100D60000E944205DC01CB018C199D09AE09BF0927
:100D7000B7FF2DC0692D80EF0E94C4050E94420577
:100D8000DC01CB018C199D09AE09BF09B7FF09C071
:100D900088EC0E947A0687FFF1CF60E888EC0E9419
:100DA000C40588EF0E947A06C82FCF70C43019F0AE
:100DB000CE3051F00CC00F5F1F4FA114B10481F26F
:100DC0000A151B0569F603C0DF5FD33049F68C2F87
:100DD000DF91CF911F910F91FF90EF90DF90CF9017
:100DE000BF90AF909F908F9008952F923F924F9217
:100DF0005F926F927F928F929F92AF92BF92CF92AB
:100E0000DF92EF92FF920F931F93CF93DF9300D067
:100E100000D01F92CDB7DEB75C017D836C834A01A1
:100E20007901F901C080D180FB014180F901118273
:100E30001082FB01828181FD02C060E101C060E29D
:100E400088EE0E94C4053C2C9401EC81FD81408118
:100E500060E0C5010E949206582EF6E08F1317C07D
:100E600088EF0E947A0685FB882780F991E0892720
:100E7000EC81FD81928180FB91F9928391FD02C00A
:100E800060E101C060E288EE0E94C405DDCF8111FF
:100E90005BC088EC0E947A0682FF54C080E30E9407
:100EA0007A06282E282F30E0C216D30608F4232C09
:100EB000F70120813181622C712CA601421B530B5A
:100EC00057FF02C040E050E09301461557050CF46F
:100ED0009A0129833A832B830E94F603F8E0FEBD32
:100EE0008B813A8129810DB407FEFDCFF80188235B
:100EF00041F01EBC81500DB407FEFDCF4EB54193AD
:100F0000F6CF020F131F0E94980564E088EC0E9440
:100F1000C405F70120813181620E731E71826082E7
:100F2000241420F06C147D0408F48ECF88EF0E9406
:100F30007A0682958170EC81FD81928180FB91F926
:100F4000928302C080EF582E852D0F900F900F9046
:100F50000F900F90DF91CF911F910F91FF90EF9025
:100F6000DF90CF90BF90AF909F908F907F906F90C9
:100F70005F904F903F902F9008952F923F924F9205
:100F80005F926F927F928F929F92AF92BF92CF9219
:100F9000DF92EF92FF920F931F93CF93DF93CDB722
:100FA000DEB768970FB6F894DEBF0FBECDBF3C0129
:100FB0004B8B322E202E4E2C5C2CEDA4FEA4CFA405
:100FC000D8A81E861D861C861B868E01055F1F4FB6
:100FD0009E01235F3F4F0E94F40E811158C1398258
:100FE0002A824B825C82BE82AD8298868F82AE015D
:100FF0004F5F5F4F68E080E20E949A052B853C8539
:101000004B8960E1C3010E949206182F8111FBC039
:10101000432C441C4424441CC114D10409F4E4C0EE
:10102000AD84BE84442009F455C0D50112968C913C
:101030001297826012968C93540155245394A114F4
:10104000B10409F443C0FA86E9864B855C856D8559
:101050007E8586019E01275F3F4FC3010E94F506F2
:10106000182F863079F42D843E8488EF0E947A060A
:1010700085FB882780F98525F101928180FB91F914
:101080009283DDCF8111BFC029A93AA9211531056D
:10109000A1F0D901ED91FC9111970190F081E02D23
:1010A000C4018A199B09988B8F8769857A859E016F
:1010B000215F3F4FA601CD01099589859A85A81A20
:1010C000B90A8E159F0508F0BACF8EC0112309F416
:1010D00090C099C0F5018281816082834B845C84D9
:1010E00001818FEF800F803408F08BC00E94420591
:1010F0009B01AC01205F384D4F4F5F4F2C8B3D8BD8
:101100004E8B5F8BD50112968C9180FD02C060E4FE
:1011100001C060E888EE0E94C405202F30E03A8BC1
:10112000298BE114F10409F44DC0470129893A895A
:101130002E153F0508F44901888EA601682D80E12F
:101140000E949A05682D88E30E94C405D5016C9120
:10115000606280EF0E94C40588EC0E947A0687FFD7
:10116000FBCF60E888EC0E94C40588EF0E947A06F5
:10117000182F1F70212C312C00E0112371F00E94D8
:101180004205DC01CB012C893D894E895F89821B98
:10119000930BA40BB50BB7FD05C0E818F908C80CF4
:1011A000D91CBFCF163089F11E3009F468C0143045
:1011B00049F4BFEF2B1A3B0A41145104F1F12414F6
:1011C0003504D9F588EF0E947A0685FB882780F9D7
:1011D000D50112969C91129780FB90F912969C93E0
:1011E000112309F450C00FC02B853C85411003C06A
:1011F0004CC02B853C8560EA4B89C3010E94920656
:1012000046C08AED44C0812F42C088EF0E947A0612
:1012100085FB882780F9E1E08E27D50112969C9105
:10122000129780FB90F912969C9390FD02C060E4A7
:1012300001C060E888EE0E94C40560E088E30E9477
:10124000C405F601608180E10E94C405688D88E3D1
:101250000E94C405D5016C91606280EF0E94C405B4
:1012600088EC0E947A0687FFFBCF60E888EC0E943A
:10127000C40588EF0E947A06182F1F707ECF0F5F7B
:101280000330D9F69FCF2B853C8560E8B5CF6896B3
:101290000FB6F894DEBF0FBECDBFDF91CF911F9187
:1012A0000F91FF90EF90DF90CF90BF90AF909F9005
:1012B0008F907F906F905F904F903F902F90089508
:1012C0008F929F92AF92BF92CF92EF920F93FC01B9
:1012D0008285473499F0433551F04933B9F481FBA5
:1012E000992790F99095282F90FB21F90EC0982FFF
:1012F00091709095282F90FB20F907C082FB9927C9
:1013000090F99095282F90FB22F9228792858917D2
:1013100039F16115710521F1DB011F921F923A9697
:10132000FF93EF931F9281E08F9388248394912CF5
:10133000A12CB12C92E0C92EE12C09E021E240E081
:1013400016966C91169714968D919C9115970E9404
:10135000BD070F900F900F900F900F900F9001C04E
:1013600080E00F91EF90CF90BF90AF909F908F90C3
:1013700008952F923F924F925F926F927F928F9239
:101380009F92AF92BF92CF92DF92EF92FF920F9314
:101390001F93CF93DF93CDB7DEB7C558D1090FB6F2
:1013A000F894DEBF0FBECDBFDC011496ED90FC902B
:1013B000159716963C91311142C2022FA42EB62EDB
:1013C0003C01FC01108ED701ED91FC910190F08160
:1013D000E02D60E0C70109952C01009711F486ED1E
:1013E00033C2FC01C080D180C114D10409F429C2E8
:1013F0009301295F3F4FEF963FAF2EAFEF973183B9
:10140000208304839E0126593F4F48E050E060E06E
:10141000D30114968D919C9115970E94BA0F1E01CD
:10142000BCE72B0E311CF10180838111FAC1AB9610
:101430001FADAB97D201CD92DC92D701ED91FC911B
:101440000280F381E02D2A2D40E06B2DC701099524
:10145000F3018683882309F4F6C1E2969FADE297F3
:101460009087482F60E0848195810E94E00FD10130
:101470008C93D701ED91FC91D20114961C92882394
:1014800069F00480F581E02DD30116966C91C701B7
:101490000995F3011682D1018C91D6C10190F0819A
:1014A000E02DD30116966C91C7010995009709F4B8
:1014B00096CF133108F012E1FC010483112389F067
:1014C000412F50E09E0126593F4FD30116966C9153
:1014D000169714968D919C9115970E94BA0FF10161
:1014E0008083D1011C9111119FC1EC963FADEC9707
:1014F000CD57DF4F3883C358D040F12C2E0181E403
:10150000480E511CD3011296CC57DF4FB983A883E4
:10151000C458D040F2017096C158DF4FF983E88378
:10152000CF57D040CD57DF4F3881C358D040F31646
:1015300009F49EC0EAE0F1E0D2011196FC93EE932B
:10154000CC57DF4F28813981C458D04013963C9343
:101550002E9312971D961C921D971F961C921E92F9
:101560001E9790961C92909791961C9291979296A6
:101570001C92929798961C929897C158DF4F888139
:101580009981CF57D04016969C938E9315971896B5
:101590009C938E93179714968C9114971A968C930C
:1015A0001A9719968C931997C158DF4FE881F981E2
:1015B000CF57D0401C96FC93EE931B97D301169601
:1015C000DC9016971496ED91FC911597CF57DF4F4D
:1015D000F983E883C158D0401F921F9221E030E088
:1015E0002C0F3D1F3F932F931F9239E03F9379E0DB
:1015F000872E912CA12CB12CE2E0CE2EEF2C06E010
:1016000020E840E06D2DCF57DF4F88819981C15888
:10161000D0400E94BD070F900F900F900F900F9039
:101620000F9081111EC08B809C805F924F9281E051
:1016300090E08C0F9D1F9F938F931F9290E49F9338
:1016400020E840E06D2DCF57DF4F88819981C15848
:10165000D0400E94BD070F900F900F900F900F90F9
:101660000F90D30152968C91823011F0F3945ACF9F
:10167000D30152960C91023021F081EDF10180836B
:10168000D3C0D3011696FC90169714968D919C9119
:101690001597EF96EEADFFADEF97EF2B79F06F2D2D
:1016A0000E940902FC01892B59F0F282EF962EADBF
:1016B0003FADEF9731832083038303C018ED01C052
:1016C00016EDD1011C9368EE73E080E090E00E947B
:1016D000BA0E1F921F921F921F921F921F92812C6F
:1016E000912CA12CB12CC12CF301E78409E020E05E
:1016F00040E06681848195810E94BD07D1018C9371
:101700000F900F900F900F900F900F9081118CC041
:1017100068EE73E080E090E00E94BA0E1F921F9284
:101720001F921F921F921F92E12C0BE021E240E0DA
:10173000F3016681848195810E94BD07D1018C935C
:101740000F900F900F900F900F900F9081116CC021
:101750001F921F921F921F921F921F920AE021E276
:1017600040E0F3016681848195810E94BD07D1012B
:101770008C93FE01EF5BFF4F80E191E091838083CA
:10178000FF93EF93CE0101969F938F931F9280E476
:101790008F9350E8852E912C62E2C62E06E021E858
:1017A00040E0F3016681848195810E94BD0780E25B
:1017B000D1018C930FB6F894DEBF0FBECDBF11E000
:1017C000D1018C91882349F190E095958795D101BD
:1017D0008C931F921F923F922F921F921F938824E7
:1017E0008394912CA12CB12C42E0C42EE12C09E071
:1017F00021E240E0F3016681848195810E94BD076A
:101800000F900F900F900F900F900F9069E170E084
:1018100080E090E00E94BA0ED3CF91E0F301978B65
:1018200013C0D201CD92DC92D301ED91FC910480E2
:10183000F581E02DC3010995F101808105C089ED95
:1018400003C087ED01C084EDCB57DF4F0FB6F8948E
:10185000DEBF0FBECDBFDF91CF911F910F91FF90E3
:10186000EF90DF90CF90BF90AF909F908F907F9040
:101870006F905F904F903F902F900895AF92BF92DE
:10188000DF92EF92FF920F931F93CF93DF93CDB729
:10189000DEB766970FB6F894DEBF0FBECDBFDC0192
:1018A00057962C91222309F45FC07C010E944205C7
:1018B000F7010389148925893689DC01CB01801B56
:1018C000910BA20BB30BB7FD4FC0838590E09E8BAD
:1018D0008D8B42856681A480B5801C8A1B8A1A8AFA
:1018E000198A8E010F5E1F4F9E012D5E3F4FC5016D
:1018F0000E94F40ED82E81110EC049895A896B8935
:101900007C898E010F5F1F4F9E012B5E3F4FC501EB
:101910000E94F506D82ED11018C02D893E8923309B
:10192000310598F0D7011D968D919C911E970097D7
:1019300061F0DC01ED91FC910190F081E02D8E01D0
:101940000F5F1F4F40E0B70109950E944205F70164
:10195000208DDC01CB01820F911DA11DB11D838B58
:10196000948BA58BB68B01C0D12C8D2D66960FB6AE
:10197000F894DEBF0FBECDBFDF91CF911F910F91C5
:10198000FF90EF90DF90BF90AF900895CF93DF93DB
:1019900000D0CDB7DEB76A8389830E94F6038981C0
:1019A00082608EBD6A810DB407FEFDCF6EBD0DB4A1
:1019B00007FEFDCF0F900F90DF91CF910C9498050B
:1019C000CF93DF931F92CDB7DEB789830E94F603D2
:1019D00089818EBD0DB407FEFDCF1EBC0DB407FE80
:1019E000FDCF0E9498058EB50F90DF91CF9108959D
:1019F000CF92DF92EF92FF920F931F93CF93DF93DB
:101A00006C017A018B01C0E0D0E0CE15DF0589F0D2
:101A1000D8016D918D01D601ED91FC910190F0817D
:101A2000E02DC6010995892B11F47E0102C0219693
:101A3000ECCFC701DF91CF911F910F91FF90EF90F5
:101A4000DF90CF900895FC01918D828D981761F001
:101A5000828DDF01A80FB11D5D968C91928D9F5FE5
:101A60009F73928F90E008958FEF9FEF0895FC0190
:101A7000918D828D981731F0828DE80FF11D858D43
:101A800090E008958FEF9FEF0895FC01918D228DD6
:101A9000892F90E0805C9F4F821B91098F7399275B
:101AA000089588EE91E00E94450D21E0892B09F40C
:101AB00020E0822F0895FC01848DDF01A80FB11D65
:101AC000A35ABF4F2C91848D90E001968F73992774
:101AD000848FA689B7892C93A089B1898C91806461
:101AE0008C93938D848D981306C00288F389E02D22
:101AF00080818F7D80830895EF92FF920F931F93D3
:101B0000CF93DF93EC0181E0888F9B8D8C8D9813B0
:101B100005C0E889F989808185FD24C0F62E0B8DEA
:101B200010E00F5F1F4F0F731127E02E8C8DE8120E
:101B30000CC00FB607FCFACFE889F989808185FFD0
:101B4000F5CFCE010E945B0DF1CF8B8DFE01E80F2A
:101B5000F11DE35AFF4FF0820B8FEA89FB898081E8
:101B6000806207C0EE89FF896083E889F9898081F6
:101B70008064808381E090E0DF91CF911F910F918D
:101B8000FF90EF900895CF93DF93EC01888D882329
:101B9000C9F0EA89FB89808185FD05C0A889B989DA
:101BA0008C9186FD0FC00FB607FCF5CF808185FFB5
:101BB000F2CFA889B9898C9185FFEDCFCE010E9423
:101BC0005B0DE7CFDF91CF91089580E090E0892B06
:101BD00029F00E94510D81110C94000008950E947B
:101BE0004B170F931F93CF93DF93EC01888199815B
:101BF000009729F02A813B812617370788F48B014B
:101C00006F5F7F4F0E948116009761F099838883F0
:101C10001B830A832C813D81232B11F4FC0110824C
:101C200081E001C080E0DF91CF911F910F91089575
:101C3000CF93DF93EC0188819981009711F00E9486
:101C4000E915198218821D821C821B821A82DF917B
:101C5000CF910895EF92FF920F931F93CF93DF934D
:101C6000EC017B018A01BA010E94F10D811104C0CF
:101C7000CE010E94180E07C01D830C83B701888116
:101C800099810E945917CE01DF91CF911F910F9139
:101C9000FF90EF900895CF93DF93EC01FB0186173F
:101CA000970761F0608171816115710529F04481A8
:101CB00055810E942A0E02C00E94180ECE01DF91AB
:101CC000CF9108951F920F920FB60F9211242F9368
:101CD0003F934F935F936F937F938F939F93AF93B4
:101CE000BF93EF93FF9388EE91E00E945B0DFF910D
:101CF000EF91BF91AF919F918F917F916F915F9184
:101D00004F913F912F910F900FBE0F901F901895FC
:101D10001F920F920FB60F9211242F938F939F93C0
:101D2000EF93FF93E091F801F091F9018081E09148
:101D3000FE01F091FF0182FD12C0908180910102AD
:101D40008F5F8F7320910202821751F0E0910102A0
:101D5000F0E0E851FE4F958F8093010201C0808131
:101D6000FF91EF919F918F912F910F900FBE0F9048
:101D70001F9018958F929F92AF92BF92CF92DF9251
:101D8000EF92FF926B017C010E9420044B015C01E9
:101D9000C114D104E104F104F1F00E942004DC013B
:101DA000CB0188199909AA09BB09883E9340A1056E
:101DB000B10570F321E0C21AD108E108F10888EEFC
:101DC000880E83E0981EA11CB11CC114D104E1044B
:101DD000F10419F7DDCFFF90EF90DF90CF90BF9027
:101DE000AF909F908F9008958F929F92BF92CF92C5
:101DF000DF92EF92FF920F931F93CF93DF931F9287
:101E0000CDB7DEB74C01B62E690149830E940902A5
:101E10007C014981009709F44BC0DC01ED91FC91F4
:101E20001197309709F446C013969C9180E089176A
:101E300031F02081241729F033968F5FF8CFE0E04E
:101E4000F0E0D601ED93FC933097B1F12281269515
:101E5000269530E02031310514F02FE030E081E0AC
:101E600090E0A0E0B0E004C0880F991FAA1FBB1F3C
:101E70002A95D2F70197F801918380836B2D80EE2C
:101E80000E94C40588ED0E947A06682FD701149637
:101E90008C91882339F0F401EA58FF4F80818260E9
:101EA000682B01C0697F88ED0E94C40580E005C0F1
:101EB00086ED03C087ED01C08BED0F90DF91CF91D0
:101EC0001F910F91FF90EF90DF90CF90BF909F9068
:101ED0008F900895009769F0FC0101900020E9F7C8
:101EE0003197AF01481B590BBC0188EE91E00C946F
:101EF000F80C80E090E0089588EF0E94E00C807C70
:101F00008034A1F018F4882301F10895803819F085
:101F1000803CB9F0089588ED0E94E00C81FD0BC073
:101F200069EC88ED0E94C60C82E00CC088ED0E942E
:101F3000E00C81FDF5CF6BEC88ED0E94C60C83E0D0
:101F400001C081E08093E701089561ED88ED0E9472
:101F5000C60C1092E7010895CF93DF930E946A0F99
:101F6000EC0183EA91E00E946A0F8C0F9D1FDF91C4
:101F7000CF9108958F929F92AF92BF92CF92EF929E
:101F80000F931F921F923F932F935F934F934A019A
:101F9000A12CB12CCC24C394E12C06E020E840E035
:101FA0000E94BD070F900F900F900F900F900F9011
:101FB0000F91EF90CF90BF90AF909F908F9008952A
:101FC0008F929F92AF92BF92CF92EF920F93CF9347
:101FD0001F921F921F921F921F921F92812C912C71
:101FE000A12CB12CC12CE42E05E020E040E00E94A1
:101FF000BD07C82F6CE271E080E090E00E94BA0E4D
:102000000F900F900F900F900F900F908C2FCF91FB
:102010000F91EF90CF90BF90AF909F908F900895C9
:10202000CF93DF93EC0140E050E065EA71E00E945D
:102030002A0ECE01DF91CF910895809121039091D6
:1020400022030E94E91580912703909128030C94A4
:10205000E915CF93DF93CDB7DEB769970FB6F89444
:10206000DEBF0FBECDBF789484B5826084BD84B5D9
:10207000816084BD85B5826085BD85B5816085BD83
:1020800080916E00816080936E001092810080913B
:1020900081008260809381008091810081608093C3
:1020A0008100809180008160809380008091B100E8
:1020B00084608093B1008091B00081608093B00013
:1020C00080917A00846080937A0080917A008260A7
:1020D00080937A0080917A00816080937A00809169
:1020E0007A00806880937A001092C100E091F80134
:1020F000F091F90182E08083E091F401F091F50123
:102100001082E091F601F091F70180E18083109256
:102110000002E091FC01F091FD0186E08083E091F6
:10212000FA01F091FB01808180618083E091FA01E6
:10213000F091FB01808188608083E091FA01F09149
:10214000FB01808180688083E091FA01F091FB01BE
:1021500080818F7D8083229A0E949805259A239AF8
:102160002498229A80E58CBD81E08DBD219868E19C
:1021700088E80E94C60C60E288E70E94C60C60E016
:1021800088E70E94C60C01E010E00115110509F472
:102190008EC388E60E94E00C0F5F1F4F80FFF5CFD3
:1021A00061EC88ED0E94C60C60E680ED0E94C60CD2
:1021B00064E088EE0E94C60C88EE0E94E00C82FF6C
:1021C000FBCF0E947C0F60E288EC0E94C60C61E0AD
:1021D00080E80E94C60C68EC70E080E090E00E940D
:1021E000BA0E86E892E090939F0280939E025E0171
:1021F00023E1A20EB11CCE0101964C0119990DC02C
:1022000088EC0E947A0685FF04C00E947C0F60E281
:1022100001C060E088EC0E94C4058091E701813034
:1022200039F040F0823079F0833039F511E00CC09C
:1022300083E106C080918502807F8031F1F081E1E9
:10224000809385021AC010E080918502807F8031E2
:10225000A9F40E944205DC01CB0188539F4FAF4F88
:10226000BF4F8093D4019093D501A093D601B09332
:10227000D70180E28093850201C010E090E0E92E52
:1022800093E0F92E6701D6018D919D916D01009724
:1022900039F0DC01ED91FC910680F781E02D099584
:1022A000B0E2CB16B3E0DB0671F780918502803493
:1022B00009F444C050F4803231F18033C9F18131E6
:1022C00009F0CCC1109220030AC0813509F45DC029
:1022D000803809F46FC0803509F0C0C13EC0F701F5
:1022E000819191917F01009739F0DC01ED91FC9192
:1022F0000480F581E02D0995B0E2EB16B3E0FB0612
:1023000071F782E149C10E9442050091D401109108
:10231000D5012091D6013091D701DC01CB01801B82
:10232000910BA20BB30BB7FD99C180E3809385029B
:1023300061E088EE0E94C40580E42EC188EE0E9410
:102340007A0680FD8BC188ED0E947A06682F68604E
:1023500088ED0E94C40580E51FC188EC0E947A06C2
:1023600086FF7CC181E5809385020E944205DC01E5
:10237000CB014496A11DB11D8093D4019093D5014A
:10238000A093D601B093D70169C10E944205409045
:10239000D4015090D5016090D6017090D701DC0136
:1023A000CB0184199509A609B709B7FD57C180E883
:1023B000809385021B8A88E08C8B8CE38D8BE0EB0D
:1023C000F2E0EF2B11F486EDE2C0C090B002D090A5
:1023D000B102B092B102A092B0021093B402940183
:1023E00042E150E060E08AEA92E00E94BA0FD092A7
:1023F000B102C092B0028111C5C049845A842B84B5
:102400003C846D80FE81F98F80E0C82E83E0D82E59
:10241000712CD6018D919C91009789F1DC01ED9191
:10242000FC910084F185E02D0995811128C0F60109
:1024300080819181DC01ED91FC910088F189E02D92
:10244000698D09958823D9F0F60180819181DC019D
:10245000ED91FC910484F585E02DA101B20109956F
:10246000811185C0F60180819181DC01ED91FC91A3
:102470000684F785E02D662D0995811178C0739447
:10248000B2E0CB0ED11CE0E17E12C3CFD12CD7013C
:102490008D919C91009799F1DC01ED91FC91008464
:1024A000F185E02D099581112AC0F7018081918184
:1024B000DC01ED91FC910088F189E02D698D099591
:1024C000882309F4E6C1F70180819181DC01ED9157
:1024D000FC910484F585E02DA101B20109958111DB
:1024E0000EC0F70180819181DC01ED91FC910684A1
:1024F000F785E02D662D0995882309F4CAC1D39488
:10250000B2E0EB0EF11CE0E1DE12C1CF8091B0022F
:102510009091B102892B39F11093B40220E040E090
:1025200060E08AEA92E00E94AD01F82E8823E9F08B
:10253000682F8AEA92E00E940902009709F443CFCB
:10254000DC0114961C934F2D60E08AEA92E00E9411
:10255000E00F182F8823F9F06F2D8AEA92E00E948D
:102560008501812F0FC087ED12C084ED10C0012FAF
:1025700020E040E0672D8AEA92E00E94DE05813D7E
:1025800009F47DCF882339F0823D09F467C0809338
:10259000D30180EA01C080E9809385025FC088EEA4
:1025A00091E00E94230D6C01DD24B0E3CB1AD10829
:1025B0002091E0013091E101EAE0CE16D10408F06B
:1025C00086C00D2C000CEE08FF082330310509F001
:1025D00065C02091DC013091DD014091DE01509118
:1025E000DF01AAE0B0E00E94CE17C60ED71EE81E9B
:1025F000F91EC092DC01D092DD01E092DE01F09282
:10260000DF011C8A1B8A1E8A1D8A188E1F8A67E2B8
:1026100073E0C5010E944B0E2AE0A401C701B60178
:102620000E949C17F40101900020E9F73197E81906
:10263000F909EF88F88C3097C9F4B50187E293E087
:102640000E944B0E8B899C890E94E9151092DC0137
:102650001092DD011092DE011092DF0188EE91E010
:102660000E94450D892B09F09ACF8FC0EE0EFF1EF8
:10267000B701C5010E94F10D882361F02B893C89C7
:102680008F89988DB401820F931F0E945917F88E7D
:10269000EF8AD3CFC5010E94180ECFCF2091D80169
:1026A0003091D9014091DA015091DB01AAE0B0E00C
:1026B0000E94CE17C60ED71EE81EF91EC092D80182
:1026C000D092D901E092DA01F092DB01C7CF22303B
:1026D000310581F44091D8015091D9016091DA011E
:1026E0007091DB014093E2015093E3016093E401B8
:1026F0007093E5011092D8011092D9011092DA017D
:102700001092DB01813499F028F48A3099F18D30F0
:1027100089F136C0843499F0853421F1833481F510
:1027200082E090E09093E1018093E00197CF809167
:10273000E601813009F092CF1092E6018FCFA3E03D
:10274000B0E0B093E101A093E00182E090E0A0E06E
:10275000B0E08093E2019093E301A093E401B09391
:10276000E5017CCF1092E1011092E00191E090939D
:10277000E60174CF8091E601813011F41092E601F8
:102780001092E1011092E00169CF8091E601813061
:1027900009F07CC08091E2019091E301A091E401F5
:1027A000B091E50181309105A105B10529F00297AD
:1027B000A105B105F1F062C08091B801811105C099
:1027C00082E891E00E94AC0F59C080E38093B7018A
:1027D00084E891E00E946A0F85EB91E00E946A0F05
:1027E00089E891E00E94AC0F88EE91E00E94C30D51
:1027F00045C08091270390912803009729F00E94FB
:1028000060172B013C0103C0412C512C3201E09098
:102810002103F0902203E114F10421F0C7010E948A
:10282000601703C060E070E0CB01461657066806EB
:102830007906E1F48091250390912603892BB1F06C
:10284000D7018C91882391F086E891E00E94AC0F2B
:10285000E5EBF1E01192B1E0E43DFB07D9F787E247
:1028600093E00E94101081E293E006C08BE891E0B3
:102870000E94AC0F87E293E00E9410101092E201D8
:102880001092E3011092E4011092E5010E94E50D1F
:10289000B5CC012F20E040E06D2D8AEA92E00E9445
:1028A000DE05982F977F913D09F06CCE28CE80E908
:1028B00091E00E94AC0F8FCC1092EB011092EA01D4
:1028C00088EE93E0A0E0B0E08093EC019093ED01FE
:1028D000A093EE01B093EF0186E191E09093E901BE
:1028E0008093E80185EC90E09093F5018093F401EA
:1028F00084EC90E09093F7018093F60180EC90E0F7
:102900009093F9018093F80181EC90E09093FB01A2
:102910008093FA0182EC90E09093FD018093FC019A
:1029200086EC90E09093FF018093FE0110920102EB
:1029300010920202109203021092040210922803D5
:102940001092270310922A031092290310922C034D
:1029500010922B0340E050E065EA71E087E293E0DB
:102960000E942A0E10922203109221031092240337
:1029700010922303109226031092250340E050E0AA
:1029800065EA71E081E293E00E942A0E8AE491E018
:102990009093AB028093AA021092AF021092B202FF
:1029A00081E08093B3021092B4028CEA92E090939B
:1029B000B1028093B0021092AC0288E08093AD0225
:1029C0008CE38093AE0280E090E041E02CEA32E0BC
:1029D000FC01E655FD4F1586468717863487238709
:1029E00005968B349105A1F71092200381E1809325
:1029F00085028AEA92E0909396028093950286E29D
:102A000091E0909392028093910284E491E09093FC
:102A10009402809393021092A4021092A502109245
:102A2000A6021092A7021092A8021092980288E0C3
:102A3000809399028CE380939A0210929B021092E9
:102A40009C0284E080939D0281E08093A302109217
:102A5000A2021092A00210929F0210929E02E0E049
:102A6000F3E080E090E021913191232B51F4880F25
:102A7000991FFC01E050FD4F81E992E09183808332
:102A800004C001968031910571F71092900284E59F
:102A900091E090938702809386020895EE0FFF1FC6
:102AA0000590F491E02D0994CF93DF938230910546
:102AB00010F482E090E0E0912F03F091300320E0E9
:102AC00030E0C0E0D0E0309711F1408151814817EB
:102AD0005907C0F04817590761F482819381209704
:102AE00019F09B838A832BC09093300380932F032C
:102AF00026C02115310519F04217530718F49A0121
:102B0000BE01DF01EF010280F381E02DDCCF211552
:102B1000310509F1281B390B2430310590F4129648
:102B20008D919C9113976115710521F0FB019383A1
:102B3000828304C09093300380932F03FD0132966B
:102B400044C0FD01E20FF31F81939193225031099C
:102B50002D933C933AC020912D0330912E03232BCB
:102B600041F4209102013091030130932E03209310
:102B70002D0320910001309101012115310541F40F
:102B80002DB73EB74091040150910501241B350B30
:102B9000E0912D03F0912E03E217F307A0F42E1B12
:102BA0003F0B2817390778F0AC014E5F5F4F2417B1
:102BB000350748F04E0F5F1F50932E0340932D03AF
:102BC0008193919302C0E0E0F0E0CF01DF91CF91DB
:102BD00008950F931F93CF93DF93009709F48CC050
:102BE000FC0132971382128200912F03109130035F
:102BF0000115110581F420813181820F931F2091ED
:102C00002D0330912E032817390779F5F0932E0301
:102C1000E0932D0371C0D80140E050E0AE17BF072C
:102C200050F412962D913C911397AD012115310569
:102C300009F1D901F3CF9D01DA0133832283608149
:102C40007181860F971F8217930769F4EC01288121
:102C50003981260F371F2E5F3F4F318320838A81B2
:102C60009B8193838283452B29F4F0933003E09377
:102C70002F0342C01396FC93EE931297ED014991F6
:102C800059919E01240F351FE217F30771F48081DB
:102C90009181840F951F029611969C938E93828149
:102CA000938113969C938E931297E0E0F0E0D80105
:102CB00012968D919C911397009719F0F8018C0151
:102CC000F6CF8D919C9198012E5F3F4F820F931FFD
:102CD00020912D0330912E032817390769F430977E
:102CE00029F41092300310922F0302C01382128233
:102CF00010932E0300932D03DF91CF911F910F911D
:102D00000895A0E0B0E0E7E8F6E10C94DD17EC01EF
:102D1000009721F4CB010E945415B8C0FC01E60FC6
:102D2000F71F9C0122503109E217F30708F4ACC0E9
:102D3000D9010D911C91119706171707B0F00530B6
:102D4000110508F49FC0C80104978617970708F477
:102D500099C002501109061B170B019311936D9333
:102D60007C93CF010E94E9158DC05B01A01AB10AC6
:102D70004C01800E911EA0912F03B091300340E0D2
:102D800050E0E12CF12C109709F44AC0A815B905C0
:102D9000D1F56D907C901197630182E0C80ED11C33
:102DA000CA14DB0480F1A3014A195B096A0182E0BD
:102DB000C80ED11C1296BC9012971396AC91B5E038
:102DC000CB16D10440F0B282A38351834083D90152
:102DD0006D937C930AC00E5F1F4FC301800F911F3C
:102DE000F90191838083EB2DFA2FE114F10431F086
:102DF000D7011396FC93EE93129744C0F0933003DF
:102E0000E0932F033FC08D919C911197481759076C
:102E100008F4AC017D0112960D90BC91A02DB3CFAA
:102E200080912D0390912E0388159905E1F44617A2
:102E30005707C8F48091000190910101009741F477
:102E40008DB79EB74091040150910501841B950BED
:102E5000E817F907C8F4F0932E03E0932D03F90166
:102E6000718360830FC0CB010E9454157C010097D1
:102E700059F0A801BE010E945017CE010E94E91529
:102E8000C70104C0CE0102C080E090E0CDB7DEB73C
:102E9000EEE00C94F91781E090E0F8940C941F1880
:102EA000FB01DC0102C001900D9241505040D8F767
:102EB0000895FB01DC0101900D920020E1F70895D7
:102EC0001F93FC0199278827BC01E89411911032C7
:102ED000E9F3193010F01E30C8F31B3251F01D32E7
:102EE00049F4689406C00E948717610F711D811D07
:102EF000911D119110531A30B0F33EF490958095C6
:102F0000709561957F4F8F4F9F4F1F910895592F57
:102F1000482F372F262F660F771F881F991F660FA0
:102F2000771F881F991F620F731F841F951F660FDD
:102F3000771F881F991F0895BB27FA01A62F6217D4
:102F4000710581059105330B30FB66F0AA27660FEA
:102F5000771F881F991FAA1FA21710F0A21B639545
:102F60003850A9F7A05DAA3308F0A95DA19336F700
:102F7000B111B1931082CA010C94BE17DC01FC019F
:102F8000672F71917723E1F7329704C07C916D939D
:102F900070836291AE17BF07C8F308950E9410189E
:102FA000A59F900DB49F900DA49F800D911D11249D
:102FB00008952F923F924F925F926F927F928F92DD
:102FC0009F92AF92BF92CF92DF92EF92FF920F93B8
:102FD0001F93CF93DF93CDB7DEB7CA1BDB0B0FB6C2
:102FE000F894DEBF0FBECDBF09942A88398848887F
:102FF0005F846E847D848C849B84AA84B984C88415
:10300000DF80EE80FD800C811B81AA81B981CE0F0B
:10301000D11D0FB6F894DEBF0FBECDBFED010895F0
:10302000A29FB001B39FC001A39F700D811D112409
:10303000911DB29F700D811D1124911D089510E006
:10304000C9E4D0E004C0FE010E944E152196CA34A6
:08305000D107C9F7F894FFCF86
:103058000000310380000000000021020000000091
:103068007F03000000007C0DF80C450D230D370D83
:10307800C30D00000000B9091C04DB033E0CD80393
:1030880015041304D303CE03C603F803C303800354
:10309800FEFF0000B903000000000902AD01850130
:1030A80000000000A80060090E0445040D040A048D
:1030B80007040404010400000000A80060090E04CD
:1030C80036010D040A04070404040104000000008A
:1030D800EF0D300041004143324500414333450084
:1030E8004F534320646964206E6F74207374617257
:0630F800742E000D0A0019
:00000001FF
